{
  "abi": [
    {
      "inputs": [],
      "stateMutability": "nonpayable",
      "type": "constructor"
    },
    {
      "inputs": [],
      "name": "LengthMismatch",
      "type": "error"
    },
    {
      "inputs": [
        {
          "internalType": "uint256",
          "name": "index",
          "type": "uint256"
        },
        {
          "internalType": "bytes",
          "name": "data",
          "type": "bytes"
        }
      ],
      "name": "Reverted",
      "type": "error"
    },
    {
      "inputs": [],
      "name": "Uncled",
      "type": "error"
    },
    {
      "anonymous": false,
      "inputs": [
        {
          "indexed": true,
          "internalType": "address",
          "name": "user",
          "type": "address"
        },
        {
          "indexed": true,
          "internalType": "address",
          "name": "newOwner",
          "type": "address"
        }
      ],
      "name": "OwnershipTransferred",
      "type": "event"
    },
    {
      "inputs": [
        {
          "internalType": "bytes",
          "name": "commands",
          "type": "bytes"
        },
        {
          "internalType": "bytes[]",
          "name": "inputs",
          "type": "bytes[]"
        },
        {
          "internalType": "bytes32",
          "name": "requireParentBlockHash",
          "type": "bytes32"
        }
      ],
      "name": "multicall",
      "outputs": [
        {
          "internalType": "bytes",
          "name": "successes",
          "type": "bytes"
        },
        {
          "internalType": "bytes[]",
          "name": "outputs",
          "type": "bytes[]"
        }
      ],
      "stateMutability": "payable",
      "type": "function"
    },
    {
      "inputs": [
        {
          "internalType": "bytes",
          "name": "commands",
          "type": "bytes"
        },
        {
          "internalType": "bytes[]",
          "name": "inputs",
          "type": "bytes[]"
        }
      ],
      "name": "multicall",
      "outputs": [
        {
          "internalType": "bytes",
          "name": "successes",
          "type": "bytes"
        },
        {
          "internalType": "bytes[]",
          "name": "outputs",
          "type": "bytes[]"
        }
      ],
      "stateMutability": "payable",
      "type": "function"
    },
    {
      "inputs": [],
      "name": "owner",
      "outputs": [
        {
          "internalType": "address",
          "name": "",
          "type": "address"
        }
      ],
      "stateMutability": "view",
      "type": "function"
    },
    {
      "inputs": [
        {
          "internalType": "address",
          "name": "newOwner",
          "type": "address"
        }
      ],
      "name": "transferOwnership",
      "outputs": [],
      "stateMutability": "nonpayable",
      "type": "function"
    }
  ],
  "bytecode": {
    "object": "0x608060405234801561001057600080fd5b50600080546001600160a01b031916339081178255604051909182917f8be0079c531659141344cd1fd0a4f28419497f9722a3daafe3b4186f6b6457e0908290a350610ba3806100616000396000f3fe60806040526004361061003f5760003560e01c80638da5cb5b146100445780638e7548ef146100815780639171e82e146100a2578063f2fde38b146100b5575b600080fd5b34801561005057600080fd5b50600054610064906001600160a01b031681565b6040516001600160a01b0390911681526020015b60405180910390f35b61009461008f3660046107e2565b6100d7565b6040516100789291906108a6565b6100946100b0366004610918565b610121565b3480156100c157600080fd5b506100d56100d0366004610984565b61018d565b005b60608082806100e76001436109ca565b401461010657604051637797ae6d60e01b815260040160405180910390fd5b61011288888888610121565b90999098509650505050505050565b60005460609081906001600160a01b031633146101745760405162461bcd60e51b815260206004820152600c60248201526b15539055551213d49256915160a21b60448201526064015b60405180910390fd5b61018086868686610221565b9097909650945050505050565b6000546001600160a01b031633146101d65760405162461bcd60e51b815260206004820152600c60248201526b15539055551213d49256915160a21b604482015260640161016b565b600080546001600160a01b0319166001600160a01b0383169081178255604051909133917f8be0079c531659141344cd1fd0a4f28419497f9722a3daafe3b4186f6b6457e09190a350565b60608084838114610248576040516001621398b960e31b0319815260040160405180910390fd5b60036102558260076109e3565b901c67ffffffffffffffff81111561026f5761026f6109f6565b6040519080825280601f01601f191660200182016040528015610299576020820181803683370190505b5092508067ffffffffffffffff8111156102b5576102b56109f6565b6040519080825280602002602001820160405280156102e857816020015b60608152602001906001900390816102d35790505b509150600080606060005b848110156103fc578a8a8281811061030d5761030d610a0c565b885192013560f81c95508791839150811061032a5761032a610a0c565b60209081029190910101519150610378607f8516600981111561034f5761034f610a22565b8a8a8481811061036157610361610a0c565b90506020028101906103739190610a38565b61040a565b909350915082156103cc578651600160fb1b600783161c908890600384901c9081106103a6576103a6610a0c565b0160200180516001600160f81b031992831692169190911790600082901a9053506103f4565b608084166000036103f457808260405163022812c560e01b815260040161016b929190610a7f565b6001016102f3565b505050505094509492505050565b600060608185600981111561042157610421610a22565b036104a8576040513090610444906348b8f41760e11b9087908790602001610aa0565b60408051601f198184030181529082905261045e91610ac4565b600060405180830381855af49150503d8060008114610499576040519150601f19603f3d011682016040523d82523d6000602084013e61049e565b606091505b509150915061074c565b60038560098111156104bc576104bc610a22565b036104e85760408051476020820152600191015b6040516020818303038152906040529150915061074c565b60048560098111156104fc576104fc610a22565b03610515576040805133316020820152600191016104d0565b600585600981111561052957610529610a22565b0361057757600061053a8486610ae0565b60601c90506001816001600160a01b03163160405160200161055e91815260200190565b604051602081830303815290604052925092505061074c565b6000600286600981111561058d5761058d610a22565b14806105aa575060078660098111156105a8576105a8610a22565b145b806105c6575060098660098111156105c4576105c4610a22565b145b156105e9576105d58486610b15565b90506105e48460208188610b33565b945094505b60018660098111156105fd576105fd610a22565b148061061a5750600286600981111561061857610618610a22565b145b1561069b57600061062b8587610ae0565b60601c9050808261063f876014818b610b33565b60405161064d929190610b5d565b60006040518083038185875af1925050503d806000811461068a576040519150601f19603f3d011682016040523d82523d6000602084013e61068f565b606091505b5093509350505061074c565b600060078760098111156106b1576106b1610a22565b116106cf5760405185810160405285878237858184f0915050610705565b60006106db8688610b15565b90506106ea866020818a610b33565b965096506040518681016040528688823781878286f5925050505b6001600160a01b0381161580159450610749576040516bffffffffffffffffffffffff19606083901b16602082015260340160405160208183030381529060405292505b50505b935093915050565b60008083601f84011261076657600080fd5b50813567ffffffffffffffff81111561077e57600080fd5b60208301915083602082850101111561079657600080fd5b9250929050565b60008083601f8401126107af57600080fd5b50813567ffffffffffffffff8111156107c757600080fd5b6020830191508360208260051b850101111561079657600080fd5b6000806000806000606086880312156107fa57600080fd5b853567ffffffffffffffff8082111561081257600080fd5b61081e89838a01610754565b9097509550602088013591508082111561083757600080fd5b506108448882890161079d565b96999598509660400135949350505050565b60005b83811015610871578181015183820152602001610859565b50506000910152565b60008151808452610892816020860160208601610856565b601f01601f19169290920160200192915050565b6040815260006108b9604083018561087a565b6020838203818501528185518084528284019150828160051b85010183880160005b8381101561090957601f198784030185526108f783835161087a565b948601949250908501906001016108db565b50909998505050505050505050565b6000806000806040858703121561092e57600080fd5b843567ffffffffffffffff8082111561094657600080fd5b61095288838901610754565b9096509450602087013591508082111561096b57600080fd5b506109788782880161079d565b95989497509550505050565b60006020828403121561099657600080fd5b81356001600160a01b03811681146109ad57600080fd5b9392505050565b634e487b7160e01b600052601160045260246000fd5b818103818111156109dd576109dd6109b4565b92915050565b808201808211156109dd576109dd6109b4565b634e487b7160e01b600052604160045260246000fd5b634e487b7160e01b600052603260045260246000fd5b634e487b7160e01b600052602160045260246000fd5b6000808335601e19843603018112610a4f57600080fd5b83018035915067ffffffffffffffff821115610a6a57600080fd5b60200191503681900382131561079657600080fd5b828152604060208201526000610a98604083018461087a565b949350505050565b6001600160e01b031984168152818360048301376000910160040190815292915050565b60008251610ad6818460208701610856565b9190910192915050565b6bffffffffffffffffffffffff198135818116916014851015610b0d5780818660140360031b1b83161692505b505092915050565b803560208310156109dd57600019602084900360031b1b1692915050565b60008085851115610b4357600080fd5b83861115610b5057600080fd5b5050820193919092039150565b818382376000910190815291905056fea264697066735822122093b88dfb660168338cc68e068b1404d9cc1082d5b974e8eba1b2ef743277fc1664736f6c63430008130033",
    "linkReferences": {}
  },
  "methodIdentifiers": {
    "multicall(bytes,bytes[])": "9171e82e",
    "multicall(bytes,bytes[],bytes32)": "8e7548ef",
    "owner()": "8da5cb5b",
    "transferOwnership(address)": "f2fde38b"
  },
  "id": 3
}