{
  "abi": [
    {
      "inputs": [],
      "stateMutability": "nonpayable",
      "type": "constructor"
    },
    {
      "inputs": [
        {
          "internalType": "uint256",
          "name": "index",
          "type": "uint256"
        },
        {
          "internalType": "bytes",
          "name": "data",
          "type": "bytes"
        }
      ],
      "name": "Failed",
      "type": "error"
    },
    {
      "inputs": [],
      "name": "InvalidCommand",
      "type": "error"
    },
    {
      "inputs": [],
      "name": "LengthMismatch",
      "type": "error"
    },
    {
      "inputs": [],
      "name": "Uncled",
      "type": "error"
    },
    {
      "anonymous": false,
      "inputs": [
        {
          "indexed": true,
          "internalType": "address",
          "name": "user",
          "type": "address"
        },
        {
          "indexed": true,
          "internalType": "address",
          "name": "newOwner",
          "type": "address"
        }
      ],
      "name": "OwnershipTransferred",
      "type": "event"
    },
    {
      "inputs": [
        {
          "internalType": "bytes",
          "name": "commands",
          "type": "bytes"
        },
        {
          "internalType": "bytes[]",
          "name": "inputs",
          "type": "bytes[]"
        },
        {
          "internalType": "bytes32",
          "name": "requireParentBlockHash",
          "type": "bytes32"
        }
      ],
      "name": "multicall",
      "outputs": [
        {
          "internalType": "bytes",
          "name": "successes",
          "type": "bytes"
        },
        {
          "internalType": "bytes[]",
          "name": "outputs",
          "type": "bytes[]"
        }
      ],
      "stateMutability": "payable",
      "type": "function"
    },
    {
      "inputs": [
        {
          "internalType": "bytes",
          "name": "commands",
          "type": "bytes"
        },
        {
          "internalType": "bytes[]",
          "name": "inputs",
          "type": "bytes[]"
        }
      ],
      "name": "multicall",
      "outputs": [
        {
          "internalType": "bytes",
          "name": "successes",
          "type": "bytes"
        },
        {
          "internalType": "bytes[]",
          "name": "outputs",
          "type": "bytes[]"
        }
      ],
      "stateMutability": "payable",
      "type": "function"
    },
    {
      "inputs": [],
      "name": "owner",
      "outputs": [
        {
          "internalType": "address",
          "name": "",
          "type": "address"
        }
      ],
      "stateMutability": "view",
      "type": "function"
    },
    {
      "inputs": [
        {
          "internalType": "address",
          "name": "newOwner",
          "type": "address"
        }
      ],
      "name": "transferOwnership",
      "outputs": [],
      "stateMutability": "nonpayable",
      "type": "function"
    }
  ],
  "bytecode": {
    "object": "0x608060405234801561001057600080fd5b50600080546001600160a01b031916339081178255604051909182917f8be0079c531659141344cd1fd0a4f28419497f9722a3daafe3b4186f6b6457e0908290a350610c42806100616000396000f3fe60806040526004361061003f5760003560e01c80638da5cb5b146100445780638e7548ef146100815780639171e82e146100a2578063f2fde38b146100b5575b600080fd5b34801561005057600080fd5b50600054610064906001600160a01b031681565b6040516001600160a01b0390911681526020015b60405180910390f35b61009461008f36600461085f565b6100d7565b604051610078929190610923565b6100946100b0366004610995565b610121565b3480156100c157600080fd5b506100d56100d0366004610a01565b61018d565b005b60608082806100e7600143610a47565b401461010657604051637797ae6d60e01b815260040160405180910390fd5b61011288888888610121565b90999098509650505050505050565b60005460609081906001600160a01b031633146101745760405162461bcd60e51b815260206004820152600c60248201526b15539055551213d49256915160a21b60448201526064015b60405180910390fd5b61018086868686610221565b9097909650945050505050565b6000546001600160a01b031633146101d65760405162461bcd60e51b815260206004820152600c60248201526b15539055551213d49256915160a21b604482015260640161016b565b600080546001600160a01b0319166001600160a01b0383169081178255604051909133917f8be0079c531659141344cd1fd0a4f28419497f9722a3daafe3b4186f6b6457e09190a350565b60608084838114610248576040516001621398b960e31b0319815260040160405180910390fd5b6008610255826007610a60565b61025f9190610a73565b67ffffffffffffffff81111561027757610277610a95565b6040519080825280601f01601f1916602001820160405280156102a1576020820181803683370190505b5092508067ffffffffffffffff8111156102bd576102bd610a95565b6040519080825280602002602001820160405280156102f057816020015b60608152602001906001900390816102db5790505b509150600080606060005b84811015610409578a8a8281811061031557610315610aab565b9050013560f81c60f81b935085818151811061033357610333610aab565b60209081029190910101519150610385607f60f886901c16600981111561035c5761035c610ac1565b8a8a8481811061036e5761036e610aab565b90506020028101906103809190610ad7565b610417565b909350915082156103d9578651600160fb1b600783161c908890600384901c9081106103b3576103b3610aab565b0160200180516001600160f81b031992831692169190911790600082901a9053506102fb565b600160ff1b84166000036104045780826040516305ceb7e160e21b815260040161016b929190610b1e565b6102fb565b505050505094509492505050565b600060608185600981111561042e5761042e610ac1565b036104b5576040513090610451906348b8f41760e11b9087908790602001610b3f565b60408051601f198184030181529082905261046b91610b63565b600060405180830381855af49150503d80600081146104a6576040519150601f19603f3d011682016040523d82523d6000602084013e6104ab565b606091505b50915091506107c9565b60038560098111156104c9576104c9610ac1565b036104f55760408051476020820152600191015b604051602081830303815290604052915091506107c9565b600485600981111561050957610509610ac1565b03610522576040805133316020820152600191016104dd565b600585600981111561053657610536610ac1565b036105845760006105478486610b7f565b60601c90506001816001600160a01b03163160405160200161056b91815260200190565b60405160208183030381529060405292509250506107c9565b6000600286600981111561059a5761059a610ac1565b14806105b7575060078660098111156105b5576105b5610ac1565b145b806105d3575060098660098111156105d1576105d1610ac1565b145b156105f6576105e28486610bb4565b90506105f18460208188610bd2565b945094505b600186600981111561060a5761060a610ac1565b14806106275750600286600981111561062557610625610ac1565b145b156106a85760006106388587610b7f565b60601c9050808261064c876014818b610bd2565b60405161065a929190610bfc565b60006040518083038185875af1925050503d8060008114610697576040519150601f19603f3d011682016040523d82523d6000602084013e61069c565b606091505b509350935050506107c9565b600060068760098111156106be576106be610ac1565b14806106db575060078760098111156106d9576106d9610ac1565b145b156106f95760405185810160405285878237858184f0915050610782565b600887600981111561070d5761070d610ac1565b148061072a5750600987600981111561072857610728610ac1565b145b1561076957600061073b8688610bb4565b905061074a866020818a610bd2565b965096506040518681016040528688823781878286f592505050610782565b6040516312f269e560e01b815260040160405180910390fd5b6001600160a01b03811615801594506107c6576040516bffffffffffffffffffffffff19606083901b16602082015260340160405160208183030381529060405292505b50505b935093915050565b60008083601f8401126107e357600080fd5b50813567ffffffffffffffff8111156107fb57600080fd5b60208301915083602082850101111561081357600080fd5b9250929050565b60008083601f84011261082c57600080fd5b50813567ffffffffffffffff81111561084457600080fd5b6020830191508360208260051b850101111561081357600080fd5b60008060008060006060868803121561087757600080fd5b853567ffffffffffffffff8082111561088f57600080fd5b61089b89838a016107d1565b909750955060208801359150808211156108b457600080fd5b506108c18882890161081a565b96999598509660400135949350505050565b60005b838110156108ee5781810151838201526020016108d6565b50506000910152565b6000815180845261090f8160208601602086016108d3565b601f01601f19169290920160200192915050565b60408152600061093660408301856108f7565b6020838203818501528185518084528284019150828160051b85010183880160005b8381101561098657601f198784030185526109748383516108f7565b94860194925090850190600101610958565b50909998505050505050505050565b600080600080604085870312156109ab57600080fd5b843567ffffffffffffffff808211156109c357600080fd5b6109cf888389016107d1565b909650945060208701359150808211156109e857600080fd5b506109f58782880161081a565b95989497509550505050565b600060208284031215610a1357600080fd5b81356001600160a01b0381168114610a2a57600080fd5b9392505050565b634e487b7160e01b600052601160045260246000fd5b81810381811115610a5a57610a5a610a31565b92915050565b80820180821115610a5a57610a5a610a31565b600082610a9057634e487b7160e01b600052601260045260246000fd5b500490565b634e487b7160e01b600052604160045260246000fd5b634e487b7160e01b600052603260045260246000fd5b634e487b7160e01b600052602160045260246000fd5b6000808335601e19843603018112610aee57600080fd5b83018035915067ffffffffffffffff821115610b0957600080fd5b60200191503681900382131561081357600080fd5b828152604060208201526000610b3760408301846108f7565b949350505050565b6001600160e01b031984168152818360048301376000910160040190815292915050565b60008251610b758184602087016108d3565b9190910192915050565b6bffffffffffffffffffffffff198135818116916014851015610bac5780818660140360031b1b83161692505b505092915050565b80356020831015610a5a57600019602084900360031b1b1692915050565b60008085851115610be257600080fd5b83861115610bef57600080fd5b5050820193919092039150565b818382376000910190815291905056fea2646970667358221220fcbfb3ba0997dbe9f611fdae8b0f869cc852433a3b86068ed99da546ee6ed50b64736f6c63430008130033",
    "linkReferences": {}
  },
  "methodIdentifiers": {
    "multicall(bytes,bytes[])": "9171e82e",
    "multicall(bytes,bytes[],bytes32)": "8e7548ef",
    "owner()": "8da5cb5b",
    "transferOwnership(address)": "f2fde38b"
  },
  "id": 27
}