{
  "abi": [
    {
      "inputs": [
        {
          "internalType": "contract IPancakeFactory",
          "name": "_factory",
          "type": "address"
        }
      ],
      "stateMutability": "nonpayable",
      "type": "constructor"
    },
    {
      "inputs": [
        {
          "internalType": "address",
          "name": "",
          "type": "address"
        }
      ],
      "name": "InsufficientBalance",
      "type": "error"
    },
    {
      "inputs": [],
      "name": "InsufficientInputAmount",
      "type": "error"
    },
    {
      "inputs": [],
      "name": "InsufficientLiquidity",
      "type": "error"
    },
    {
      "inputs": [],
      "name": "InsufficientOutputAmount",
      "type": "error"
    },
    {
      "inputs": [],
      "name": "InvalidPath",
      "type": "error"
    },
    {
      "inputs": [],
      "name": "SlippageExhausted",
      "type": "error"
    },
    {
      "anonymous": false,
      "inputs": [
        {
          "indexed": true,
          "internalType": "address",
          "name": "user",
          "type": "address"
        },
        {
          "indexed": true,
          "internalType": "address",
          "name": "newOwner",
          "type": "address"
        }
      ],
      "name": "OwnershipTransferred",
      "type": "event"
    },
    {
      "inputs": [
        {
          "internalType": "contract ERC20",
          "name": "tokenIn",
          "type": "address"
        },
        {
          "internalType": "contract ERC20",
          "name": "tokenOut",
          "type": "address"
        }
      ],
      "name": "backRunSwapAll",
      "outputs": [
        {
          "internalType": "uint256",
          "name": "amountOut",
          "type": "uint256"
        }
      ],
      "stateMutability": "nonpayable",
      "type": "function"
    },
    {
      "inputs": [],
      "name": "factory",
      "outputs": [
        {
          "internalType": "contract IPancakeFactory",
          "name": "",
          "type": "address"
        }
      ],
      "stateMutability": "view",
      "type": "function"
    },
    {
      "inputs": [
        {
          "internalType": "address",
          "name": "from",
          "type": "address"
        },
        {
          "internalType": "uint256",
          "name": "amountIn",
          "type": "uint256"
        },
        {
          "internalType": "uint256",
          "name": "amountOut",
          "type": "uint256"
        },
        {
          "internalType": "bool",
          "name": "ETHIn",
          "type": "bool"
        },
        {
          "internalType": "contract ERC20[]",
          "name": "path",
          "type": "address[]"
        },
        {
          "internalType": "uint256",
          "name": "indexIn",
          "type": "uint256"
        }
      ],
      "name": "frontRunSwap",
      "outputs": [
        {
          "internalType": "uint256",
          "name": "ourAmountIn",
          "type": "uint256"
        },
        {
          "internalType": "uint256",
          "name": "ourAmountOut",
          "type": "uint256"
        }
      ],
      "stateMutability": "nonpayable",
      "type": "function"
    },
    {
      "inputs": [
        {
          "internalType": "address",
          "name": "from",
          "type": "address"
        },
        {
          "internalType": "uint256",
          "name": "amountIn",
          "type": "uint256"
        },
        {
          "internalType": "uint256",
          "name": "amountOut",
          "type": "uint256"
        },
        {
          "internalType": "bool",
          "name": "ETHIn",
          "type": "bool"
        },
        {
          "internalType": "contract ERC20[]",
          "name": "path",
          "type": "address[]"
        },
        {
          "internalType": "uint256",
          "name": "indexIn",
          "type": "uint256"
        }
      ],
      "name": "frontRunSwapExt",
      "outputs": [
        {
          "internalType": "uint256",
          "name": "ourAmountIn",
          "type": "uint256"
        },
        {
          "internalType": "uint256",
          "name": "ourAmountOut",
          "type": "uint256"
        },
        {
          "internalType": "uint256",
          "name": "newReserveIn",
          "type": "uint256"
        },
        {
          "internalType": "uint256",
          "name": "newReserveOut",
          "type": "uint256"
        }
      ],
      "stateMutability": "nonpayable",
      "type": "function"
    },
    {
      "inputs": [],
      "name": "owner",
      "outputs": [
        {
          "internalType": "address",
          "name": "",
          "type": "address"
        }
      ],
      "stateMutability": "view",
      "type": "function"
    },
    {
      "inputs": [
        {
          "internalType": "address",
          "name": "newOwner",
          "type": "address"
        }
      ],
      "name": "transferOwnership",
      "outputs": [],
      "stateMutability": "nonpayable",
      "type": "function"
    }
  ],
  "bytecode": {
    "object": "0x60a060405234801561001057600080fd5b5060405161140e38038061140e83398101604081905261002f91610081565b600080546001600160a01b031916339081178255604051909182917f8be0079c531659141344cd1fd0a4f28419497f9722a3daafe3b4186f6b6457e0908290a3506001600160a01b03166080526100b1565b60006020828403121561009357600080fd5b81516001600160a01b03811681146100aa57600080fd5b9392505050565b60805161131f6100ef60003960008181610118015281816101ce015281816102fb01528181610544015281816105d80152610ab4015261131f6000f3fe608060405234801561001057600080fd5b50600436106100625760003560e01c80636bab8171146100675780638da5cb5b1461009f578063aadaa097146100ca578063b39bb37e146100eb578063c45a015514610113578063f2fde38b1461013a575b600080fd5b61007a610075366004610ff5565b61014f565b6040805194855260208501939093529183015260608201526080015b60405180910390f35b6000546100b2906001600160a01b031681565b6040516001600160a01b039091168152602001610096565b6100dd6100d83660046110b2565b61020a565b604051908152602001610096565b6100fe6100f9366004610ff5565b6103e3565b60408051928352602083019190915201610096565b6100b27f000000000000000000000000000000000000000000000000000000000000000081565b61014d6101483660046110eb565b610677565b005b6000806000806101648b8b8b8b8b8b8b6103e3565b90945092506101f587878781811061017e5761017e61110f565b905060200201602081019061019391906110eb565b88886101a089600161113b565b8181106101af576101af61110f565b90506020020160208101906101c491906110eb565b6001600160a01b037f000000000000000000000000000000000000000000000000000000000000000016919061070b565b50919350915050975097509750979350505050565b600080546001600160a01b031633146102595760405162461bcd60e51b815260206004820152600c60248201526b15539055551213d49256915160a21b60448201526064015b60405180910390fd5b6040516370a0823160e01b81523060048201526000906001600160a01b038516906370a0823190602401602060405180830381865afa1580156102a0573d6000803e3d6000fd5b505050506040513d601f19601f820116820180604052508101906102c4919061114e565b9050806000036102e95760405163112fed8b60e31b8152306004820152602401610250565b60008080806103226001600160a01b037f000000000000000000000000000000000000000000000000000000000000000016898961070b565b93509350935093506103358585856107aa565b955061034b6001600160a01b0389168387610837565b6000808261035b5760008861035f565b8760005b6040805160008152602081019182905263022c0d9f60e01b90915291935091506001600160a01b0385169063022c0d9f906103a39085908590339060248101611167565b600060405180830381600087803b1580156103bd57600080fd5b505af11580156103d1573d6000803e3d6000fd5b50505050505050505050505b92915050565b600080836103f284600161113b565b10610410576040516320db826760e01b815260040160405180910390fd5b87866104af57858560008181106104295761042961110f565b905060200201602081019061043e91906110eb565b6040516370a0823160e01b81526001600160a01b038c8116600483015291909116906370a0823190602401602060405180830381865afa158015610486573d6000803e3d6000fd5b505050506040513d601f19601f820116820180604052508101906104aa919061114e565b6104bb565b896001600160a01b0316315b10156104e55760405163112fed8b60e31b81526001600160a01b038a166004820152602401610250565b82156105715761056e88866000876104fe88600161113b565b9261050b939291906111d3565b80806020026020016040519081016040528093929190818152602001838360200280828437600092019190915250506001600160a01b037f00000000000000000000000000000000000000000000000000000000000000001693929150506108b5565b97505b8361057d84600261113b565b10156106055761060287868661059487600161113b565b61059f9282906111d3565b80806020026020016040519081016040528093929190818152602001838360200280828437600092019190915250506001600160a01b037f000000000000000000000000000000000000000000000000000000000000000016939291505061096d565b96505b610667888887878781811061061c5761061c61110f565b905060200201602081019061063191906110eb565b888861063e89600161113b565b81811061064d5761064d61110f565b905060200201602081019061066291906110eb565b610a0e565b9150915097509795505050505050565b6000546001600160a01b031633146106c05760405162461bcd60e51b815260206004820152600c60248201526b15539055551213d49256915160a21b6044820152606401610250565b600080546001600160a01b0319166001600160a01b0383169081178255604051909133917f8be0079c531659141344cd1fd0a4f28419497f9722a3daafe3b4186f6b6457e09190a350565b60008060008061071c878787610bdf565b8092508193505050816001600160a01b0316630902f1ac6040518163ffffffff1660e01b8152600401606060405180830381865afa158015610762573d6000803e3d6000fd5b505050506040513d601f19601f82011682018060405250810190610786919061121d565b506001600160701b03918216955016925080156107a1579192915b93509350935093565b6000836000036107cd5760405163098fb56160e01b815260040160405180910390fd5b8215806107d8575081155b156107f65760405163bb55fd2760e01b815260040160405180910390fd5b6108026126f78561126d565b9350836108116127108561126d565b61081b919061113b565b610825858461126d565b61082f9190611284565b949350505050565b600060405163a9059cbb60e01b8152836004820152826024820152602060006044836000895af13d15601f3d11600160005114161716915050806108af5760405162461bcd60e51b815260206004820152600f60248201526e1514905394d1915497d19052531151608a1b6044820152606401610250565b50505050565b60006002825110156108da576040516320db826760e01b815260040160405180910390fd5b60005b600183516108eb91906112a6565b8110156109645760008061093e8786858151811061090b5761090b61110f565b602002602001015187866001610921919061113b565b815181106109315761093161110f565b602002602001015161070b565b50509150915061094f8683836107aa565b955050508061095d906112b9565b90506108dd565b50919392505050565b6000600282511015610992576040516320db826760e01b815260040160405180910390fd5b6000600183516109a291906112a6565b90505b8015610964576000806109e887866109be6001876112a6565b815181106109ce576109ce61110f565b60200260200101518786815181106109315761093161110f565b5050915091506109f9868383610c1a565b9550505080610a07906112d2565b90506109a5565b6040516370a0823160e01b8152336004820152600090819081906001600160a01b038616906370a0823190602401602060405180830381865afa158015610a59573d6000803e3d6000fd5b505050506040513d601f19601f82011682018060405250810190610a7d919061114e565b905080600003610aa25760405163112fed8b60e31b8152336004820152602401610250565b6000808080610adb6001600160a01b037f0000000000000000000000000000000000000000000000000000000000000000168a8a61070b565b9350935093509350610aef8b8b8686610ca9565b9650848710610afe5784610b00565b865b9650610b0d8785856107aa565b955085600003610b305760405163ca46902960e01b815260040160405180910390fd5b610b456001600160a01b038a1633848a610d65565b60008082610b5557600088610b59565b8760005b6040805160008152602081019182905263022c0d9f60e01b90915291935091506001600160a01b0385169063022c0d9f90610b9d9085908590309060248101611167565b600060405180830381600087803b158015610bb757600080fd5b505af1158015610bcb573d6000803e3d6000fd5b505050505050505050505094509492505050565b600080600080610bef8686610def565b91509150610bfe878383610e52565b9350506001600160a01b03858116911614159050935093915050565b600083600003610c3d576040516342301c2360e01b815260040160405180910390fd5b821580610c48575081155b15610c665760405163bb55fd2760e01b815260040160405180910390fd5b6126f7610c7385846112a6565b610c7d919061126d565b612710610c8a868661126d565b610c94919061126d565b610c9e9190611284565b61082f90600161113b565b6000610cb86126f7600261126d565b610cc4866126f761126d565b84610cd2612710600261126d565b610cdc919061126d565b610d3e610ceb896126f761126d565b888789610cfb612710600461126d565b610d05919061126d565b610d0f919061126d565b610d199190611284565b610d23919061113b565b610d2f8a6126f761126d565b610d39919061126d565b610f39565b610d4891906112a6565b610d5291906112a6565b610d5c9190611284565b95945050505050565b60006040516323b872dd60e01b81528460048201528360248201528260448201526020600060648360008a5af13d15601f3d1160016000511416171691505080610de85760405162461bcd60e51b81526020600482015260146024820152731514905394d1915497d19493d357d1905253115160621b6044820152606401610250565b5050505050565b600080826001600160a01b0316846001600160a01b031603610e1057600080fd5b826001600160a01b0316846001600160a01b031610610e30578284610e33565b83835b90925090506001600160a01b038216610e4b57600080fd5b9250929050565b6000816001600160a01b0316836001600160a01b031610610e7257600080fd5b6040516bffffffffffffffffffffffff19606085811b8216602084015284901b1660348201528490604801604051602081830303815290604052805190602001207fa5934690703a592a07e841ca29d5e5c79b5e22ed4749057bb216dc31100be1c0604051602001610f19939291906001600160f81b0319815260609390931b6bffffffffffffffffffffffff191660018401526015830191909152603582015260550190565b60408051601f198184030181529190528051602090910120949350505050565b60b581600160881b8110610f525760409190911b9060801c5b69010000000000000000008110610f6e5760209190911b9060401c5b650100000000008110610f865760109190911b9060201c5b63010000008110610f9c5760089190911b9060101c5b62010000010260121c80820401600190811c80830401811c80830401811c80830401811c80830401811c80830401811c80830401901c908190048111900390565b6001600160a01b0381168114610ff257600080fd5b50565b600080600080600080600060c0888a03121561101057600080fd5b873561101b81610fdd565b965060208801359550604088013594506060880135801515811461103e57600080fd5b9350608088013567ffffffffffffffff8082111561105b57600080fd5b818a0191508a601f83011261106f57600080fd5b81358181111561107e57600080fd5b8b60208260051b850101111561109357600080fd5b60208301955080945050505060a0880135905092959891949750929550565b600080604083850312156110c557600080fd5b82356110d081610fdd565b915060208301356110e081610fdd565b809150509250929050565b6000602082840312156110fd57600080fd5b813561110881610fdd565b9392505050565b634e487b7160e01b600052603260045260246000fd5b634e487b7160e01b600052601160045260246000fd5b808201808211156103dd576103dd611125565b60006020828403121561116057600080fd5b5051919050565b84815260006020858184015260018060a01b038516604084015260806060840152835180608085015260005b818110156111af5785810183015185820160a001528201611193565b50600060a0828601015260a0601f19601f8301168501019250505095945050505050565b600080858511156111e357600080fd5b838611156111f057600080fd5b5050600583901b0193919092039150565b80516001600160701b038116811461121857600080fd5b919050565b60008060006060848603121561123257600080fd5b61123b84611201565b925061124960208501611201565b9150604084015163ffffffff8116811461126257600080fd5b809150509250925092565b80820281158282048414176103dd576103dd611125565b6000826112a157634e487b7160e01b600052601260045260246000fd5b500490565b818103818111156103dd576103dd611125565b6000600182016112cb576112cb611125565b5060010190565b6000816112e1576112e1611125565b50600019019056fea2646970667358221220d95e2f45f8f755127188550e3de219fd17d8bac6806ac29978be7169fd12422164736f6c63430008130033",
    "linkReferences": {}
  },
  "methodIdentifiers": {
    "backRunSwapAll(address,address)": "aadaa097",
    "factory()": "c45a0155",
    "frontRunSwap(address,uint256,uint256,bool,address[],uint256)": "b39bb37e",
    "frontRunSwapExt(address,uint256,uint256,bool,address[],uint256)": "6bab8171",
    "owner()": "8da5cb5b",
    "transferOwnership(address)": "f2fde38b"
  },
  "id": 9
}