{
  "abi": [
    {
      "inputs": [
        {
          "internalType": "contract IPancakeFactory",
          "name": "_factory",
          "type": "address"
        }
      ],
      "stateMutability": "nonpayable",
      "type": "constructor"
    },
    {
      "inputs": [
        {
          "internalType": "address",
          "name": "",
          "type": "address"
        }
      ],
      "name": "InsufficientBalance",
      "type": "error"
    },
    {
      "inputs": [],
      "name": "InsufficientInputAmount",
      "type": "error"
    },
    {
      "inputs": [],
      "name": "InsufficientLiquidity",
      "type": "error"
    },
    {
      "inputs": [],
      "name": "InsufficientOutputAmount",
      "type": "error"
    },
    {
      "inputs": [],
      "name": "InvalidPath",
      "type": "error"
    },
    {
      "inputs": [],
      "name": "SlippageExhausted",
      "type": "error"
    },
    {
      "anonymous": false,
      "inputs": [
        {
          "indexed": true,
          "internalType": "address",
          "name": "user",
          "type": "address"
        },
        {
          "indexed": true,
          "internalType": "address",
          "name": "newOwner",
          "type": "address"
        }
      ],
      "name": "OwnershipTransferred",
      "type": "event"
    },
    {
      "inputs": [
        {
          "internalType": "contract ERC20",
          "name": "tokenIn",
          "type": "address"
        },
        {
          "internalType": "contract ERC20",
          "name": "tokenOut",
          "type": "address"
        }
      ],
      "name": "backRunSwapAll",
      "outputs": [
        {
          "internalType": "uint256",
          "name": "amountOut",
          "type": "uint256"
        }
      ],
      "stateMutability": "nonpayable",
      "type": "function"
    },
    {
      "inputs": [],
      "name": "factory",
      "outputs": [
        {
          "internalType": "contract IPancakeFactory",
          "name": "",
          "type": "address"
        }
      ],
      "stateMutability": "view",
      "type": "function"
    },
    {
      "inputs": [
        {
          "internalType": "address",
          "name": "from",
          "type": "address"
        },
        {
          "internalType": "uint256",
          "name": "amountIn",
          "type": "uint256"
        },
        {
          "internalType": "uint256",
          "name": "amountOut",
          "type": "uint256"
        },
        {
          "internalType": "bool",
          "name": "ETHIn",
          "type": "bool"
        },
        {
          "internalType": "contract ERC20[]",
          "name": "path",
          "type": "address[]"
        },
        {
          "internalType": "uint256",
          "name": "indexIn",
          "type": "uint256"
        }
      ],
      "name": "frontRunSwap",
      "outputs": [
        {
          "internalType": "uint256",
          "name": "hisAmountIn",
          "type": "uint256"
        },
        {
          "internalType": "uint256",
          "name": "hisAmountOut",
          "type": "uint256"
        },
        {
          "internalType": "uint256",
          "name": "ourAmountIn",
          "type": "uint256"
        },
        {
          "internalType": "uint256",
          "name": "ourAmountOut",
          "type": "uint256"
        }
      ],
      "stateMutability": "nonpayable",
      "type": "function"
    },
    {
      "inputs": [
        {
          "internalType": "address",
          "name": "from",
          "type": "address"
        },
        {
          "internalType": "uint256",
          "name": "amountIn",
          "type": "uint256"
        },
        {
          "internalType": "uint256",
          "name": "amountOut",
          "type": "uint256"
        },
        {
          "internalType": "bool",
          "name": "ETHIn",
          "type": "bool"
        },
        {
          "internalType": "contract ERC20[]",
          "name": "path",
          "type": "address[]"
        },
        {
          "internalType": "uint256",
          "name": "indexIn",
          "type": "uint256"
        }
      ],
      "name": "frontRunSwapExt",
      "outputs": [
        {
          "internalType": "uint256",
          "name": "hisAmountIn",
          "type": "uint256"
        },
        {
          "internalType": "uint256",
          "name": "hisAmountOut",
          "type": "uint256"
        },
        {
          "internalType": "uint256",
          "name": "ourAmountIn",
          "type": "uint256"
        },
        {
          "internalType": "uint256",
          "name": "ourAmountOut",
          "type": "uint256"
        },
        {
          "internalType": "uint256",
          "name": "newReserveIn",
          "type": "uint256"
        },
        {
          "internalType": "uint256",
          "name": "newReserveOut",
          "type": "uint256"
        }
      ],
      "stateMutability": "nonpayable",
      "type": "function"
    },
    {
      "inputs": [],
      "name": "owner",
      "outputs": [
        {
          "internalType": "address",
          "name": "",
          "type": "address"
        }
      ],
      "stateMutability": "view",
      "type": "function"
    },
    {
      "inputs": [
        {
          "internalType": "address",
          "name": "newOwner",
          "type": "address"
        }
      ],
      "name": "transferOwnership",
      "outputs": [],
      "stateMutability": "nonpayable",
      "type": "function"
    }
  ],
  "bytecode": {
    "object": "0x60a060405234801561001057600080fd5b5060405161143a38038061143a83398101604081905261002f91610081565b600080546001600160a01b031916339081178255604051909182917f8be0079c531659141344cd1fd0a4f28419497f9722a3daafe3b4186f6b6457e0908290a3506001600160a01b03166080526100b1565b60006020828403121561009357600080fd5b81516001600160a01b03811681146100aa57600080fd5b9392505050565b60805161134b6100ef60003960008181610130015281816101ee015281816103210152818161056c015281816106000152610ae0015261134b6000f3fe608060405234801561001057600080fd5b50600436106100625760003560e01c80636bab8171146100675780638da5cb5b146100ac578063aadaa097146100d7578063b39bb37e146100f8578063c45a01551461012b578063f2fde38b14610152575b600080fd5b61007a610075366004611021565b610167565b604080519687526020870195909552938501929092526060840152608083015260a082015260c0015b60405180910390f35b6000546100bf906001600160a01b031681565b6040516001600160a01b0390911681526020016100a3565b6100ea6100e53660046110de565b610230565b6040519081526020016100a3565b61010b610106366004611021565b610409565b6040805194855260208501939093529183015260608201526080016100a3565b6100bf7f000000000000000000000000000000000000000000000000000000000000000081565b610165610160366004611117565b6106a3565b005b60008060008060008061017f8d8d8d8d8d8d8d610409565b9298509096509450925061021589898981811061019e5761019e61113b565b90506020020160208101906101b39190611117565b8a8a6101c08b6001611167565b8181106101cf576101cf61113b565b90506020020160208101906101e49190611117565b6001600160a01b037f0000000000000000000000000000000000000000000000000000000000000000169190610737565b90505080925081935050509750975097509750975097915050565b600080546001600160a01b0316331461027f5760405162461bcd60e51b815260206004820152600c60248201526b15539055551213d49256915160a21b60448201526064015b60405180910390fd5b6040516370a0823160e01b81523360048201526000906001600160a01b038516906370a0823190602401602060405180830381865afa1580156102c6573d6000803e3d6000fd5b505050506040513d601f19601f820116820180604052508101906102ea919061117a565b90508060000361030f5760405163112fed8b60e31b8152336004820152602401610276565b60008080806103486001600160a01b037f0000000000000000000000000000000000000000000000000000000000000000168989610737565b935093509350935061035b8585856107d6565b95506103716001600160a01b0389168387610863565b6000808261038157600088610385565b8760005b6040805160008152602081019182905263022c0d9f60e01b90915291935091506001600160a01b0385169063022c0d9f906103c99085908590339060248101611193565b600060405180830381600087803b1580156103e357600080fd5b505af11580156103f7573d6000803e3d6000fd5b50505050505050505050505b92915050565b60008080808561041a866001611167565b10610438576040516320db826760e01b815260040160405180910390fd5b89886104d757878760008181106104515761045161113b565b90506020020160208101906104669190611117565b6040516370a0823160e01b81526001600160a01b038e8116600483015291909116906370a0823190602401602060405180830381865afa1580156104ae573d6000803e3d6000fd5b505050506040513d601f19601f820116820180604052508101906104d2919061117a565b6104e3565b8b6001600160a01b0316315b101561050d5760405163112fed8b60e31b81526001600160a01b038c166004820152602401610276565b8415610599576105968a886000896105268a6001611167565b92610533939291906111ff565b80806020026020016040519081016040528093929190818152602001838360200280828437600092019190915250506001600160a01b037f00000000000000000000000000000000000000000000000000000000000000001693929150506108e1565b93505b856105a5866002611167565b101561062d5761062a8988886105bc896001611167565b6105c79282906111ff565b80806020026020016040519081016040528093929190818152602001838360200280828437600092019190915250506001600160a01b037f0000000000000000000000000000000000000000000000000000000000000000169392915050610999565b92505b61068f84848989898181106106445761064461113b565b90506020020160208101906106599190611117565b8a8a6106668b6001611167565b8181106106755761067561113b565b905060200201602081019061068a9190611117565b610a3a565b949c939b5099509297509095505050505050565b6000546001600160a01b031633146106ec5760405162461bcd60e51b815260206004820152600c60248201526b15539055551213d49256915160a21b6044820152606401610276565b600080546001600160a01b0319166001600160a01b0383169081178255604051909133917f8be0079c531659141344cd1fd0a4f28419497f9722a3daafe3b4186f6b6457e09190a350565b600080600080610748878787610c0b565b8092508193505050816001600160a01b0316630902f1ac6040518163ffffffff1660e01b8152600401606060405180830381865afa15801561078e573d6000803e3d6000fd5b505050506040513d601f19601f820116820180604052508101906107b29190611249565b506001600160701b03918216955016925080156107cd579192915b93509350935093565b6000836000036107f95760405163098fb56160e01b815260040160405180910390fd5b821580610804575081155b156108225760405163bb55fd2760e01b815260040160405180910390fd5b61082e6126f785611299565b93508361083d61271085611299565b6108479190611167565b6108518584611299565b61085b91906112b0565b949350505050565b600060405163a9059cbb60e01b8152836004820152826024820152602060006044836000895af13d15601f3d11600160005114161716915050806108db5760405162461bcd60e51b815260206004820152600f60248201526e1514905394d1915497d19052531151608a1b6044820152606401610276565b50505050565b6000600282511015610906576040516320db826760e01b815260040160405180910390fd5b60005b6001835161091791906112d2565b8110156109905760008061096a878685815181106109375761093761113b565b60200260200101518786600161094d9190611167565b8151811061095d5761095d61113b565b6020026020010151610737565b50509150915061097b8683836107d6565b9550505080610989906112e5565b9050610909565b50919392505050565b60006002825110156109be576040516320db826760e01b815260040160405180910390fd5b6000600183516109ce91906112d2565b90505b801561099057600080610a1487866109ea6001876112d2565b815181106109fa576109fa61113b565b602002602001015187868151811061095d5761095d61113b565b505091509150610a25868383610c46565b9550505080610a33906112fe565b90506109d1565b6040516370a0823160e01b8152336004820152600090819081906001600160a01b038616906370a0823190602401602060405180830381865afa158015610a85573d6000803e3d6000fd5b505050506040513d601f19601f82011682018060405250810190610aa9919061117a565b905080600003610ace5760405163112fed8b60e31b8152336004820152602401610276565b6000808080610b076001600160a01b037f0000000000000000000000000000000000000000000000000000000000000000168a8a610737565b9350935093509350610b1b8b8b8686610cd5565b9650848710610b2a5784610b2c565b865b9650610b398785856107d6565b955085600003610b5c5760405163ca46902960e01b815260040160405180910390fd5b610b716001600160a01b038a1633848a610d91565b60008082610b8157600088610b85565b8760005b6040805160008152602081019182905263022c0d9f60e01b90915291935091506001600160a01b0385169063022c0d9f90610bc99085908590339060248101611193565b600060405180830381600087803b158015610be357600080fd5b505af1158015610bf7573d6000803e3d6000fd5b505050505050505050505094509492505050565b600080600080610c1b8686610e1b565b91509150610c2a878383610e7e565b9350506001600160a01b03858116911614159050935093915050565b600083600003610c69576040516342301c2360e01b815260040160405180910390fd5b821580610c74575081155b15610c925760405163bb55fd2760e01b815260040160405180910390fd5b6126f7610c9f85846112d2565b610ca99190611299565b612710610cb68686611299565b610cc09190611299565b610cca91906112b0565b61085b906001611167565b6000610ce46126f76002611299565b610cf0866126f7611299565b84610cfe6127106002611299565b610d089190611299565b610d6a610d17896126f7611299565b888789610d276127106004611299565b610d319190611299565b610d3b9190611299565b610d4591906112b0565b610d4f9190611167565b610d5b8a6126f7611299565b610d659190611299565b610f65565b610d7491906112d2565b610d7e91906112d2565b610d8891906112b0565b95945050505050565b60006040516323b872dd60e01b81528460048201528360248201528260448201526020600060648360008a5af13d15601f3d1160016000511416171691505080610e145760405162461bcd60e51b81526020600482015260146024820152731514905394d1915497d19493d357d1905253115160621b6044820152606401610276565b5050505050565b600080826001600160a01b0316846001600160a01b031603610e3c57600080fd5b826001600160a01b0316846001600160a01b031610610e5c578284610e5f565b83835b90925090506001600160a01b038216610e7757600080fd5b9250929050565b6000816001600160a01b0316836001600160a01b031610610e9e57600080fd5b6040516bffffffffffffffffffffffff19606085811b8216602084015284901b1660348201528490604801604051602081830303815290604052805190602001207fa5934690703a592a07e841ca29d5e5c79b5e22ed4749057bb216dc31100be1c0604051602001610f45939291906001600160f81b0319815260609390931b6bffffffffffffffffffffffff191660018401526015830191909152603582015260550190565b60408051601f198184030181529190528051602090910120949350505050565b60b581600160881b8110610f7e5760409190911b9060801c5b69010000000000000000008110610f9a5760209190911b9060401c5b650100000000008110610fb25760109190911b9060201c5b63010000008110610fc85760089190911b9060101c5b62010000010260121c80820401600190811c80830401811c80830401811c80830401811c80830401811c80830401811c80830401901c908190048111900390565b6001600160a01b038116811461101e57600080fd5b50565b600080600080600080600060c0888a03121561103c57600080fd5b873561104781611009565b965060208801359550604088013594506060880135801515811461106a57600080fd5b9350608088013567ffffffffffffffff8082111561108757600080fd5b818a0191508a601f83011261109b57600080fd5b8135818111156110aa57600080fd5b8b60208260051b85010111156110bf57600080fd5b60208301955080945050505060a0880135905092959891949750929550565b600080604083850312156110f157600080fd5b82356110fc81611009565b9150602083013561110c81611009565b809150509250929050565b60006020828403121561112957600080fd5b813561113481611009565b9392505050565b634e487b7160e01b600052603260045260246000fd5b634e487b7160e01b600052601160045260246000fd5b8082018082111561040357610403611151565b60006020828403121561118c57600080fd5b5051919050565b84815260006020858184015260018060a01b038516604084015260806060840152835180608085015260005b818110156111db5785810183015185820160a0015282016111bf565b50600060a0828601015260a0601f19601f8301168501019250505095945050505050565b6000808585111561120f57600080fd5b8386111561121c57600080fd5b5050600583901b0193919092039150565b80516001600160701b038116811461124457600080fd5b919050565b60008060006060848603121561125e57600080fd5b6112678461122d565b92506112756020850161122d565b9150604084015163ffffffff8116811461128e57600080fd5b809150509250925092565b808202811582820484141761040357610403611151565b6000826112cd57634e487b7160e01b600052601260045260246000fd5b500490565b8181038181111561040357610403611151565b6000600182016112f7576112f7611151565b5060010190565b60008161130d5761130d611151565b50600019019056fea2646970667358221220fbd40dd99369d80ea7f297826b3584beaca3d6bca85922ec3019a1750d509b5764736f6c63430008130033",
    "linkReferences": {}
  },
  "methodIdentifiers": {
    "backRunSwapAll(address,address)": "aadaa097",
    "factory()": "c45a0155",
    "frontRunSwap(address,uint256,uint256,bool,address[],uint256)": "b39bb37e",
    "frontRunSwapExt(address,uint256,uint256,bool,address[],uint256)": "6bab8171",
    "owner()": "8da5cb5b",
    "transferOwnership(address)": "f2fde38b"
  },
  "id": 9
}